:100000000C942A000C9447000C9447000C94470071
:100010000C9447000C9447000C9447000C94470044
:100020000C9447000C9447000C9447000C94470034
:100030000C9447000C945D010C9447000C9447000D
:100040000C9447000C9447000C9447000C94470014
:100050000C94470011241FBECFE5D8E0DEBFCDBF12
:1000600010E0A0E6B0E0E0EEFFE002C005900D92E7
:10007000AE36B107D9F711E0AEE6B0E001C01D928F
:10008000AD3AB107E1F70E94D5020C94EE070C944B
:1000900000009C0140E050E0CA01B90160587B4774
:1000A000814E9F4FF3E0660F771F881F991FFA95C7
:1000B000D1F7E4E0220F331F441F551FEA95D1F713
:1000C0000E948C05215030408FEF80937E008091FC
:1000D0007E0080937D0030BD29B986E880BD88E927
:1000E0008AB978940895EF92FF920F931F93262F69
:1000F0007C0100E010E030E040E050E0CA01B901CE
:1001000028E438EE41E050E00E946D056E0D7F1D41
:10011000801F911FB3E0660F771F881F991FBA9544
:10012000D1F7A4E0EE0CFF1C001F111FAA95D1F718
:10013000A80197010E94AE05215030408FEF8093B7
:100140007E0080917E0080937D0030BD29B986E8D5
:1001500080BD88E98AB978941F910F91FF90EF9044
:10016000089580917D008F3F11F4E0E01DC0E09183
:100170007D00FF27E7FDF095E158FF4FE08190916A
:100180007D0080917E00981741F48FEF80937E0070
:1001900080917E0080937D0007C080917D008F5FFD
:1001A00080937D0080917D008E2F08955D9BFECF12
:1001B0008CB90895FC0104C05D9BFECF8CB93196CB
:1001C00080818823C9F7089503C05D9BFECF2CB9B9
:1001D000FC01019624912223C1F70895EF92FF922A
:1001E0000F931F93CF93DF937C018B01C0E0D0E08E
:1001F00007C00E94B100F701EC0FFD1F808321961C
:10020000C017D107B0F3DF91CF911F910F91FF90ED
:10021000EF90089580917D008F3F11F490E01AC017
:1002200090917D0080917E00981734F490917E002B
:1002300080917D009F5F0DC090917D0080917E0038
:10024000891714F091E006C090917E0080917D00A6
:10025000935D981B892F089502C00E94B1000E94EF
:100260000A018823D1F708951F93CF93DF93EC0100
:10027000162F0E940A018117E0F3CE01612F70E072
:100280000E94EE0081E0DF91CF911F9108951F93AE
:10029000CF93DF93EC01162F0E940A01811738F0EB
:1002A000CE01612F70E00E94EE0081E002C0188252
:1002B00080E0DF91CF911F9108951F920F920FB6AA
:1002C0000F9211242F933F934F938F939F93EF930C
:1002D000FF934CB180917E0080917E0020917D0043
:1002E000992787FD90950196332727FD3095821732
:1002F000930739F480917D008F5F80937D0080911A
:100300007D0080917E0080917E008F5F80937E00D3
:10031000E0917E00FF27E7FDF095E158FF4F408315
:1003200080917D008F3F11F410927D00FF91EF913D
:100330009F918F914F913F912F910F900FBE0F90F2
:100340001F90189580E090E0FC01E158FF4F10826B
:10035000019680389105C1F70895662311F0DC9A63
:1003600001C0DC98DD98A49AA59AA69AA79AAF989E
:10037000AE98AD98AC9887FDAF9A86FDAE9A85FD94
:10038000AD9A84FDAC9ADE9A00C0DE98AF98AE9824
:10039000AD98AC9883FDAF9A82FDAE9A81FDAD9A7F
:1003A00080FDAC9ADE9A00C0DE98AC9AAD9AAE9A07
:1003B000AF9A089580E097E20197F1F784E090E02A
:1003C0000197F1F7DC98DD9AA498A598A698A798CC
:1003D000DE9A00C09C9B02C080E101C080E09D9934
:1003E00080629E9980649F998068DE9800C0DE9A42
:1003F00000C09C9981609D9982609E9984609F99BC
:100400008860DE9808951F93182F0E94DA01812FCB
:1004100060E00E94AD011F9108951F93182F0E9464
:10042000DA01812F61E00E94AD011F9108956623DA
:1004300011F4805801C080540E94030208950E9464
:10044000DA0190E0089581E00E940302089582E0BD
:100450000E94030208951F93182F0E94DA011A3098
:1004600049F4803410F080E001C080E480580E949C
:10047000030204C0812F61E00E94AD011F91089525
:10048000CF93DF93EC0102C00E942B028991882355
:10049000D9F7DF91CF910895CF93DF93EC0102C09C
:1004A0000E942B02FE01219684918823C9F7DF91D7
:1004B000CF910895D49AD59AD69AA49AA59AA69A35
:1004C000A79A80E09DE70197F1F7AD9AAC9ADE9A82
:1004D00000C0DE9880E097E20197F1F7DE9A00C055
:1004E000DE9880E890E0FC013197F1F7DE9A00C0D9
:1004F000DE98FC013197F1F7AC98DE9A00C0DE98E7
:100500000197F1F788E20E94030288E00E9403024B
:100510000E94230286E00E9403028CE00E940302F4
:1005200008950E940A018930E0F384EF91E020E908
:1005300031E0F9013197F1F70197D9F70E94B10045
:100540000E94B1008EE690E068E070E00E94EE004C
:100550000E942C018EE690E060E070E040E150E007
:100560000E94C90508950F931F93DF93CF93CDB7D2
:10057000DEB727970FB6F894DEBF0FBECDBF8E0152
:100580000F5F1F4FA8012AE030E00E948B07C801CF
:100590000E94400227960FB6F894DEBF0FBECDBF73
:1005A000CF91DF911F910F910895EF92FF920F93DA
:1005B0001F930E945A0280E895E20E94490080E061
:1005C00090E00E94FA0480E690E00E9440020E94BF
:1005D00091027B018C0180E061E00E941702C8015A
:1005E000B7010E94B30286E4E8168BEBF80685E8B3
:1005F000080780E0180759F782E090E069E070E0B2
:1006000041E050E00E94BD0382E090E069E070E0CC
:1006100040E050E00E94BD03DACF0F931F93DF93B9
:10062000CF93CDB7DEB727970FB6F894DEBF0FBED6
:10063000CDBF8E010F5F1F4FA8012AE030E00E945E
:100640008B07C8010E94DA0027960FB6F894DEBF28
:100650000FBECDBFCF91DF911F910F9108950F93E2
:100660001F93DF93CF93CDB7DEB727970FB6F894DC
:10067000DEBF0FBECDBF8E010F5F1F4FB8014AE036
:1006800050E00E946A07C8010E94DA0027960FB660
:10069000F894DEBF0FBECDBFCF91DF911F910F91B8
:1006A00008958230F9F0833018F4813031F407C0B6
:1006B000833059F1843009F442C080E008956930F4
:1006C00019F41ABA89B308958AB321E030E0062EEE
:1006D00002C0220F331F0A94E2F7209528232ABB79
:1006E00089B325C0693019F417BA86B3089587B362
:1006F00021E030E0062E02C0220F331F0A94E2F7F9
:100700002095282327BB86B312C0693019F414BA88
:1007100083B3089584B321E030E0062E02C0220F97
:10072000331F0A94E2F72095282324BB83B390E07B
:1007300002C0959587956A95E2F7817008956930B2
:1007400019F411BA80B3089531B381E090E0062E18
:1007500002C0880F991F0A94E2F7282F20952323BF
:1007600021BB22B3822B82BB80B390E002C095955F
:1007700087956A95E2F781700895823009F441C047
:10078000833020F4813009F0D7C007C0833009F4EA
:100790006CC0843009F0D0C09CC06B3521F48FEF61
:1007A0008ABB4BBB0895442321F0413009F0C4C0FB
:1007B00014C0693021F48FEF8ABB1BBA08958AB345
:1007C00021E030E002C0220F331F6A95E2F7822B4E
:1007D0008ABB8BB32095282312C0693021F48FEF98
:1007E0008ABB8BBB08958AB321E030E002C0220FA0
:1007F000331F6A95E2F7822B8ABB8BB3282B2BBB66
:1008000008956B3521F48FEF87BB48BB08954423CF
:1008100021F0413009F090C014C0693021F48FEF0D
:1008200087BB18BA089587B321E030E002C0220FD9
:10083000331F6A95E2F7822B87BB88B32095282364
:1008400012C0693021F48FEF87BB88BB089587B34E
:1008500021E030E002C0220F331F6A95E2F7822BBD
:1008600087BB88B3282B28BB08956B3521F48FEF05
:1008700084BB45BB0895442321F0413009F05CC09E
:1008800014C0693021F48FEF84BB15BA089584B386
:1008900021E030E002C0220F331F6A95E2F7822B7D
:1008A00084BB85B32095282312C0693021F48FEFD3
:1008B00084BB85BB089584B321E030E002C0220FE1
:1008C000331F6A95E2F7822B84BB85B3282B25BBA7
:1008D00008956B3521F48FEF81BB42BB089544230B
:1008E00019F0413049F515C0693021F48FEF81BB13
:1008F00012BA089581B321E030E002C0220F331F05
:100900006A95E2F7822B81BB82B32095282322BB14
:100910000895693021F48FEF81BB82BB089581B3C4
:1009200021E030E002C0220F331F6A95E2F7822BEC
:1009300081BB82B3282B22BB0895833019F1843008
:1009400009F43CC0823009F054C0442321F0413006
:1009500009F04FC00CC027B381E090E002C0880FBF
:10096000991F6A95E2F78095822387BB089527B384
:1009700081E090E002C0880F991F6A95E2F7282B6A
:1009800027BB0895442319F0413099F50CC024B3D6
:1009900081E090E002C0880F991F6A95E2F7809588
:1009A000822384BB089524B381E090E002C0880FC5
:1009B000991F6A95E2F7282B24BB0895442319F068
:1009C0004130B9F40CC021B381E090E002C0880F3F
:1009D000991F6A95E2F78095822381BB089521B320
:1009E00081E090E002C0880F991F6A95E2F7282BFA
:1009F00021BB0895882321F481E067E040E004C032
:100A0000813041F467E041E00E94BD0383E062E091
:100A100040E00AC0823059F481E067E040E00E9483
:100A2000BD0383E062E041E00E94BD03089583308E
:100A300051F481E067E041E00E94BD0383E062E0A1
:100A400041E00E94BD030895EF92FF920F931F9320
:100A5000CF93DF93EA010E945007009719F420E03A
:100A600030E01DC001966BE670E00E9450077C01EB
:100A700083E090E0E80EF91EC70162E270E00E9498
:100A80001E078C010E191F09CE01B701A8010E9493
:100A900041070C0F1D1FF801108221E030E0C90151
:100AA000DF91CF911F910F91FF90EF900895DB019F
:100AB0000D900020E9F71197A61BB70B4A2F50E0C5
:100AC0000E94290720E030E0892B11F421E030E07A
:100AD000C90108950E94F8060895629FD001739F8E
:100AE000F001829FE00DF11D649FE00DF11D929FCA
:100AF000F00D839FF00D749FF00D659FF00D992709
:100B0000729FB00DE11DF91F639FB00DE11DF91F2C
:100B1000BD01CF0111240895A1E21A2EAA1BBB1B0F
:100B2000FD010DC0AA1FBB1FEE1FFF1FA217B307B9
:100B3000E407F50720F0A21BB30BE40BF50B661FCF
:100B4000771F881F991F1A9469F760957095809593
:100B500090959B01AC01BD01CF01089597FB092E33
:100B600005260ED057FD04D0D7DF0AD0001C38F47C
:100B700050954095309521953F4F4F4F5F4F0895C9
:100B8000F6F790958095709561957F4F8F4F9F4FA9
:100B900008952F923F925F926F927F928F929F92D1
:100BA000AF92BF92CF92DF92EF92FF920F931F937B
:100BB000CF93DF938C011B01EA016115710519F0D8
:100BC000FB0191838083209749F0CE0102978397A0
:100BD00028F020E030E040E050E0F6C0F801A190BD
:100BE0008F018A2D90E00E941607892BB9F7FDE24C
:100BF000AF1631F4F801A1908F015524539407C02A
:100C0000FBE2AF1619F4F801A1908F01552420974B
:100C100019F0C031D105C1F4F0E3AF1679F4F80151
:100C20008081883711F0883549F4F801A1800E5F82
:100C30001F4FF2E05F2AC0E1D0E006C0209721F408
:100C400080E3A816E9F427C0C830D10531F1C930D6
:100C5000D10524F4C230D10531F50CC0CA30D1051C
:100C600089F0C031D105F9F4C12CD12CE12CB8E0C8
:100C7000FB2E28C0C12CD12CE12CA0E4FA2E22C0DE
:100C8000CAE0D0E0FCECCF2EFCECDF2EFCECEF2E2B
:100C9000FCE0FF2E17C0C8E0D0E0C12CD12CE12C25
:100CA000E0E1FE2E0FC09E01442737FD4095542FF2
:100CB00060E070E080E090E80E948C05C901DA01F4
:100CC0006C017D0120E030E040E050E060E03E015A
:100CD000882477FC8094982C70EDB72EBA0CE9E04C
:100CE000EB1570F48A2D81548A3118F499ECB92EE1
:100CF00006C08A2D81568A3150F589EAB82EBA0C81
:100D00008B2D90E08C179D0714F56F3FE1F0C21614
:100D1000D306E406F506B0F0CA01B901A4019301B7
:100D20000E946D059B01AC012B0D311D411D511D14
:100D30002130F0E03F07F0E04F07F0E85F0710F4E4
:100D400061E001C06FEFF801A1908F01C5CF2114C0
:100D5000310481F0662331F001501040F10111831C
:100D6000008308C051FE1AC002501040F1011183E7
:100D7000008314C067FF12C050FC05C02FEF3FEF87
:100D80004FEF5FE704C020E030E040E050E882E24F
:100D900090E09093AC018093AB0116C050FE08C068
:100DA00050954095309521953F4F4F4F5F4F0CC068
:100DB00057FF0AC082E290E09093AC018093AB01B0
:100DC0002FEF3FEF4FEF5FE7B901CA01DF91CF91FE
:100DD0001F910F91FF90EF90DF90CF90BF90AF9059
:100DE0009F908F907F906F905F903F902F9008958D
:100DF000FC0188279927E89421912032E9F32930D2
:100E000010F02E30C8F32B3241F02D3239F46894B3
:100E100004C00E94BF07820F911D219120532A30E8
:100E2000C0F31EF4909581959F4F08959111AFC026
:100E3000803219F089508550D0F70895FC018191D6
:100E4000861721F08823D9F7992708953197CF0184
:100E50000895FB01DC014150504088F08D918134B0
:100E60001CF08B350CF4805E619161341CF06B35A5
:100E70000CF4605E861B611171F3990B0895881B59
:100E8000FCCFFB01DC014150504048F001900D9235
:100E90000020C9F701C01D9241505040E0F708956D
:100EA000FB0151915523A9F0BF01DC014D9145177C
:100EB0004111E1F759F4CD010190002049F04D9125
:100EC00040154111C9F3FB014111EFCF81E090E0E2
:100ED00001970895FB019F01E8944230C4F0453228
:100EE000B4F44A3029F497FB1EF4909581959F4FF6
:100EF000642F77270E94DA07805D8A330CF0895DC2
:100F00008193CB010097A1F716F45DE25193108213
:100F1000C9010C94CA07FA01CF93FF93EF932230D3
:100F200044F1253234F5C22FE894CA3049F497FBD6
:100F30003EF490958095709561957F4F8F4F9F4FB0
:100F40002C2F332744275527FF93EF930E948C05BE
:100F5000EF91FF91605D6A330CF0695D6193B901B7
:100F6000CA01605070408040904051F716F4CDE2C5
:100F7000C19310828F919F91CF910C94CA077AE010
:100F8000979F902D879F802D910D1124089599276B
:100F900088270895DC01FC01672F71917723E1F721
:100FA000329704C07C916D9370836291AE17BF0736
:100FB000C8F30895AA1BBB1B51E107C0AA1FBB1FA2
:100FC000A617B70710F0A61BB70B881F991F5A95D5
:100FD000A9F780959095BC01CD010895F894FFCFB5
:0E0FE0005377697065204361726400223A0005
:00000001FF
